{
  "_format": "hh-sol-artifact-1",
  "contractName": "Recover",
  "sourceName": "contracts/Recover.sol",
  "abi": [
    {
      "inputs": [
        {
          "internalType": "address",
          "name": "_target",
          "type": "address"
        }
      ],
      "stateMutability": "nonpayable",
      "type": "constructor"
    },
    {
      "anonymous": false,
      "inputs": [
        {
          "indexed": true,
          "internalType": "address",
          "name": "previousOwner",
          "type": "address"
        },
        {
          "indexed": true,
          "internalType": "address",
          "name": "newOwner",
          "type": "address"
        }
      ],
      "name": "OwnershipTransferred",
      "type": "event"
    },
    {
      "inputs": [],
      "name": "account",
      "outputs": [
        {
          "internalType": "address",
          "name": "",
          "type": "address"
        }
      ],
      "stateMutability": "view",
      "type": "function"
    },
    {
      "inputs": [
        {
          "internalType": "address",
          "name": "newGuardian",
          "type": "address"
        }
      ],
      "name": "addGuardian",
      "outputs": [],
      "stateMutability": "nonpayable",
      "type": "function"
    },
    {
      "inputs": [
        {
          "internalType": "bytes32",
          "name": "recoverProcessId",
          "type": "bytes32"
        },
        {
          "internalType": "address",
          "name": "guardian",
          "type": "address"
        }
      ],
      "name": "getGuardianVote",
      "outputs": [
        {
          "internalType": "address",
          "name": "",
          "type": "address"
        }
      ],
      "stateMutability": "view",
      "type": "function"
    },
    {
      "inputs": [],
      "name": "getGuardians",
      "outputs": [
        {
          "internalType": "address[]",
          "name": "",
          "type": "address[]"
        }
      ],
      "stateMutability": "view",
      "type": "function"
    },
    {
      "inputs": [],
      "name": "getGuardiansThreshold",
      "outputs": [
        {
          "internalType": "uint256",
          "name": "",
          "type": "uint256"
        }
      ],
      "stateMutability": "view",
      "type": "function"
    },
    {
      "inputs": [],
      "name": "getRecoverProcessesIds",
      "outputs": [
        {
          "internalType": "bytes32[]",
          "name": "",
          "type": "bytes32[]"
        }
      ],
      "stateMutability": "view",
      "type": "function"
    },
    {
      "inputs": [
        {
          "internalType": "address",
          "name": "_address",
          "type": "address"
        }
      ],
      "name": "isGuardian",
      "outputs": [
        {
          "internalType": "bool",
          "name": "",
          "type": "bool"
        }
      ],
      "stateMutability": "view",
      "type": "function"
    },
    {
      "inputs": [],
      "name": "owner",
      "outputs": [
        {
          "internalType": "address",
          "name": "",
          "type": "address"
        }
      ],
      "stateMutability": "view",
      "type": "function"
    },
    {
      "inputs": [
        {
          "internalType": "bytes32",
          "name": "recoverProcessId",
          "type": "bytes32"
        },
        {
          "internalType": "string",
          "name": "plainSecret",
          "type": "string"
        },
        {
          "internalType": "bytes32",
          "name": "newHash",
          "type": "bytes32"
        }
      ],
      "name": "recoverOwnership",
      "outputs": [],
      "stateMutability": "nonpayable",
      "type": "function"
    },
    {
      "inputs": [
        {
          "internalType": "address",
          "name": "currentGuardian",
          "type": "address"
        }
      ],
      "name": "removeGuardian",
      "outputs": [],
      "stateMutability": "nonpayable",
      "type": "function"
    },
    {
      "inputs": [],
      "name": "renounceOwnership",
      "outputs": [],
      "stateMutability": "nonpayable",
      "type": "function"
    },
    {
      "inputs": [
        {
          "internalType": "bytes32",
          "name": "newHash",
          "type": "bytes32"
        }
      ],
      "name": "setSecret",
      "outputs": [],
      "stateMutability": "nonpayable",
      "type": "function"
    },
    {
      "inputs": [
        {
          "internalType": "uint256",
          "name": "newThreshold",
          "type": "uint256"
        }
      ],
      "name": "setThreshold",
      "outputs": [],
      "stateMutability": "nonpayable",
      "type": "function"
    },
    {
      "inputs": [
        {
          "internalType": "bytes4",
          "name": "_interfaceId",
          "type": "bytes4"
        }
      ],
      "name": "supportsInterface",
      "outputs": [
        {
          "internalType": "bool",
          "name": "",
          "type": "bool"
        }
      ],
      "stateMutability": "view",
      "type": "function"
    },
    {
      "inputs": [
        {
          "internalType": "address",
          "name": "newOwner",
          "type": "address"
        }
      ],
      "name": "transferOwnership",
      "outputs": [],
      "stateMutability": "nonpayable",
      "type": "function"
    },
    {
      "inputs": [
        {
          "internalType": "bytes32",
          "name": "recoverProcessId",
          "type": "bytes32"
        },
        {
          "internalType": "address",
          "name": "newOwner",
          "type": "address"
        }
      ],
      "name": "voteToRecover",
      "outputs": [],
      "stateMutability": "nonpayable",
      "type": "function"
    }
  ],
  "bytecode": "0x60806040523480156200001157600080fd5b5060405162002d4f38038062002d4f833981810160405281019062000037919062000232565b8080600160006101000a81548173ffffffffffffffffffffffffffffffffffffffff021916908373ffffffffffffffffffffffffffffffffffffffff1602179055506200008f816200009760201b62000a131760201c565b505062000264565b620000a76200019f60201b60201c565b73ffffffffffffffffffffffffffffffffffffffff168173ffffffffffffffffffffffffffffffffffffffff16146200019c5760008060009054906101000a900473ffffffffffffffffffffffffffffffffffffffff169050816000806101000a81548173ffffffffffffffffffffffffffffffffffffffff021916908373ffffffffffffffffffffffffffffffffffffffff1602179055508173ffffffffffffffffffffffffffffffffffffffff168173ffffffffffffffffffffffffffffffffffffffff167f8be0079c531659141344cd1fd0a4f28419497f9722a3daafe3b4186f6b6457e060405160405180910390a3505b50565b60008060009054906101000a900473ffffffffffffffffffffffffffffffffffffffff16905090565b600080fd5b600073ffffffffffffffffffffffffffffffffffffffff82169050919050565b6000620001fa82620001cd565b9050919050565b6200020c81620001ed565b81146200021857600080fd5b50565b6000815190506200022c8162000201565b92915050565b6000602082840312156200024b576200024a620001c8565b5b60006200025b848285016200021b565b91505092915050565b612adb80620002746000396000f3fe608060405234801561001057600080fd5b50600436106101005760003560e01c80637140415611610097578063960bfe0411610066578063960bfe0414610275578063a526d83b14610291578063d4adf362146102ad578063f2fde38b146102dd57610100565b80637140415614610215578063715018a6146102315780637a118daf1461023b5780638da5cb5b1461025757610100565b806335a9c82f116100d357806335a9c82f146101a15780633f6e9749146101bd5780635dab2420146101db578063624d7ffb146101f957610100565b806301ffc9a7146101055780630665f04b146101355780630c68ba2114610153578063187c534814610183575b600080fd5b61011f600480360381019061011a919061170e565b6102f9565b60405161012c9190611756565b60405180910390f35b61013d61035a565b60405161014a9190611861565b60405180910390f35b61016d600480360381019061016891906118af565b61036b565b60405161017a9190611756565b60405180910390f35b61018b610388565b60405161019891906118f5565b60405180910390f35b6101bb60048036038101906101b69190611946565b610392565b005b6101c56103ec565b6040516101d29190611a31565b60405180910390f35b6101e3610410565b6040516101f09190611a62565b60405180910390f35b610213600480360381019061020e9190611bc3565b610436565b005b61022f600480360381019061022a91906118af565b610601565b005b6102396106c1565b005b61025560048036038101906102509190611c32565b6106d5565b005b61025f6107fa565b60405161026c9190611a62565b60405180910390f35b61028f600480360381019061028a9190611c9e565b610823565b005b6102ab60048036038101906102a691906118af565b61088d565b005b6102c760048036038101906102c29190611c32565b610901565b6040516102d49190611a62565b60405180910390f35b6102f760048036038101906102f291906118af565b61098f565b005b600063cb81043b60e01b7bffffffffffffffffffffffffffffffffffffffffffffffffffffffff1916827bffffffffffffffffffffffffffffffffffffffffffffffffffffffff19161480610353575061035282610b12565b5b9050919050565b60606103666007610b7c565b905090565b6000610381826007610b9d90919063ffffffff16565b9050919050565b6000600254905090565b61039a610bcd565b806000801b8114156103e1576040517f08c379a00000000000000000000000000000000000000000000000000000000081526004016103d890611d28565b60405180910390fd5b816004819055505050565b606061040b600660006003548152602001908152602001600020610c44565b905090565b600160009054906101000a900473ffffffffffffffffffffffffffffffffffffffff1681565b806000801b81141561047d576040517f08c379a000000000000000000000000000000000000000000000000000000000815260040161047490611d28565b60405180910390fd5b6104878484610c59565b816004819055506003600081548092919060010191905055506000600160009054906101000a900473ffffffffffffffffffffffffffffffffffffffff1673ffffffffffffffffffffffffffffffffffffffff16638da5cb5b6040518163ffffffff1660e01b815260040160206040518083038186803b15801561050a57600080fd5b505afa15801561051e573d6000803e3d6000fd5b505050506040513d601f19601f820116820180604052508101906105429190611d5d565b90506105558163c403d48f60e01b610e0f565b610594576040517f08c379a000000000000000000000000000000000000000000000000000000000815260040161058b90611dfc565b60405180910390fd5b6000806105e8600160009054906101000a900473ffffffffffffffffffffffffffffffffffffffff1633617fbf60001b6040516020016105d49190611e3d565b604051602081830303815290604052610f3a565b915091506105f7838383611221565b5050505050505050565b610609610bcd565b61061d816007610b9d90919063ffffffff16565b61065c576040517f08c379a000000000000000000000000000000000000000000000000000000000815260040161065390611eca565b60405180910390fd5b6002546106696007611332565b116106a9576040517f08c379a00000000000000000000000000000000000000000000000000000000081526004016106a090611f5c565b60405180910390fd5b6106bd81600761134790919063ffffffff16565b5050565b6106c9610bcd565b6106d36000610a13565b565b6106e9336007610b9d90919063ffffffff16565b610728576040517f08c379a000000000000000000000000000000000000000000000000000000000815260040161071f90611fc8565b60405180910390fd5b60006003549050610754836006600084815260200190815260200160002061137790919063ffffffff16565b508160056000838152602001908152602001600020600085815260200190815260200160002060003373ffffffffffffffffffffffffffffffffffffffff1673ffffffffffffffffffffffffffffffffffffffff16815260200190815260200160002060006101000a81548173ffffffffffffffffffffffffffffffffffffffff021916908373ffffffffffffffffffffffffffffffffffffffff160217905550505050565b60008060009054906101000a900473ffffffffffffffffffffffffffffffffffffffff16905090565b61082b610bcd565b6108356007611332565b81111580156108445750600081115b610883576040517f08c379a000000000000000000000000000000000000000000000000000000000815260040161087a9061205a565b60405180910390fd5b8060028190555050565b610895610bcd565b6108a9816007610b9d90919063ffffffff16565b156108e9576040517f08c379a00000000000000000000000000000000000000000000000000000000081526004016108e0906120ec565b60405180910390fd5b6108fd81600761138e90919063ffffffff16565b5050565b6000600560006003548152602001908152602001600020600084815260200190815260200160002060008373ffffffffffffffffffffffffffffffffffffffff1673ffffffffffffffffffffffffffffffffffffffff16815260200190815260200160002060009054906101000a900473ffffffffffffffffffffffffffffffffffffffff16905092915050565b610997610bcd565b600073ffffffffffffffffffffffffffffffffffffffff168173ffffffffffffffffffffffffffffffffffffffff161415610a07576040517f08c379a00000000000000000000000000000000000000000000000000000000081526004016109fe9061217e565b60405180910390fd5b610a1081610a13565b50565b610a1b6107fa565b73ffffffffffffffffffffffffffffffffffffffff168173ffffffffffffffffffffffffffffffffffffffff1614610b0f5760008060009054906101000a900473ffffffffffffffffffffffffffffffffffffffff169050816000806101000a81548173ffffffffffffffffffffffffffffffffffffffff021916908373ffffffffffffffffffffffffffffffffffffffff1602179055508173ffffffffffffffffffffffffffffffffffffffff168173ffffffffffffffffffffffffffffffffffffffff167f8be0079c531659141344cd1fd0a4f28419497f9722a3daafe3b4186f6b6457e060405160405180910390a3505b50565b60007f01ffc9a7000000000000000000000000000000000000000000000000000000007bffffffffffffffffffffffffffffffffffffffffffffffffffffffff1916827bffffffffffffffffffffffffffffffffffffffffffffffffffffffff1916149050919050565b60606000610b8c836000016113be565b905060608190508092505050919050565b6000610bc5836000018373ffffffffffffffffffffffffffffffffffffffff1660001b61141a565b905092915050565b3373ffffffffffffffffffffffffffffffffffffffff16610bec6107fa565b73ffffffffffffffffffffffffffffffffffffffff1614610c42576040517f08c379a0000000000000000000000000000000000000000000000000000000008152600401610c39906121ea565b60405180910390fd5b565b6060610c52826000016113be565b9050919050565b60006003549050600080610c6d6007611332565b905060005b81811015610d58573373ffffffffffffffffffffffffffffffffffffffff166005600086815260200190815260200160002060008881526020019081526020016000206000610ccb84600761143d90919063ffffffff16565b73ffffffffffffffffffffffffffffffffffffffff1673ffffffffffffffffffffffffffffffffffffffff16815260200190815260200160002060009054906101000a900473ffffffffffffffffffffffffffffffffffffffff1673ffffffffffffffffffffffffffffffffffffffff161415610d4b5782806001019350505b8080600101915050610c72565b50600254821015610d9e576040517f08c379a0000000000000000000000000000000000000000000000000000000008152600401610d9590612256565b60405180910390fd5b60045484604051602001610db291906122f0565b6040516020818303038152906040528051906020012014610e08576040517f08c379a0000000000000000000000000000000000000000000000000000000008152600401610dff90612353565b60405180910390fd5b5050505050565b6000806301ffc9a760e01b83604051602401610e2b9190612382565b604051602081830303815290604052907bffffffffffffffffffffffffffffffffffffffffffffffffffffffff19166020820180517bffffffffffffffffffffffffffffffffffffffffffffffffffffffff838183161783525050505090506000808573ffffffffffffffffffffffffffffffffffffffff1661753084604051610eb591906123e4565b6000604051808303818686fa925050503d8060008114610ef1576040519150601f19603f3d011682016040523d82523d6000602084013e610ef6565b606091505b5091509150602081511015610f115760009350505050610f34565b818015610f2e575080806020019051810190610f2d9190612427565b5b93505050505b92915050565b606080600367ffffffffffffffff811115610f5857610f57611a98565b5b604051908082528060200260200182016040528015610f865781602001602082028036833780820191505090505b509150600367ffffffffffffffff811115610fa457610fa3611a98565b5b604051908082528060200260200182016040528015610fd757816020015b6060815260200190600190039081610fc25790505b50905060008573ffffffffffffffffffffffffffffffffffffffff166354f6127f7fdf30dba06db6a30e65354d9a64c609861f089545ca58c6b4dbe31a5f338cb0e360001b6040518263ffffffff1660e01b81526004016110389190612463565b60006040518083038186803b15801561105057600080fd5b505afa158015611064573d6000803e3d6000fd5b505050506040513d6000823e3d601f19601f8201168201806040525081019061108d919061251f565b6110969061259a565b60001c905060006001826110aa9190612630565b90507fdf30dba06db6a30e65354d9a64c609861f089545ca58c6b4dbe31a5f338cb0e360001b846000815181106110e4576110e3612686565b5b6020026020010181815250508060405160200161110191906126d6565b6040516020818303038152906040528360008151811061112457611123612686565b5b602002602001018190525061115c7fdf30dba06db6a30e65354d9a64c609861f089545ca58c6b4dbe31a5f338cb0e360001b83611457565b846001815181106111705761116f612686565b5b6020026020010181815250508560405160200161118d9190612739565b604051602081830303815290604052836001815181106111b0576111af612686565b5b60200260200101819052506111d76b4b80742de2bf82acb363000060a01b8760601b61147c565b846002815181106111eb576111ea612686565b5b602002602001018181525050848360028151811061120c5761120b612686565b5b60200260200101819052505050935093915050565b606060008383604051602401611238929190612860565b6040516020818303038152906040527f14a6e293000000000000000000000000000000000000000000000000000000006020820180517bffffffffffffffffffffffffffffffffffffffffffffffffffffffff838183161783525050505090508473ffffffffffffffffffffffffffffffffffffffff166309c5eabe826040518263ffffffff1660e01b81526004016112d191906128e1565b600060405180830381600087803b1580156112eb57600080fd5b505af11580156112ff573d6000803e3d6000fd5b505050506040513d6000823e3d601f19601f82011682018060405250810190611328919061251f565b9150509392505050565b6000611340826000016114b6565b9050919050565b600061136f836000018373ffffffffffffffffffffffffffffffffffffffff1660001b6114c7565b905092915050565b600061138683600001836115db565b905092915050565b60006113b6836000018373ffffffffffffffffffffffffffffffffffffffff1660001b6115db565b905092915050565b60608160000180548060200260200160405190810160405280929190818152602001828054801561140e57602002820191906000526020600020905b8154815260200190600101908083116113fa575b50505050509050919050565b600080836001016000848152602001908152602001600020541415905092915050565b600061144c836000018361164b565b60001c905092915050565b600080611467848460801b611676565b9050806114739061259a565b91505092915050565b600080838360405160200161149292919061299d565b6040516020818303038152906040529050806114ad9061259a565b91505092915050565b600081600001805490509050919050565b600080836001016000848152602001908152602001600020549050600081146115cf5760006001826114f991906129c9565b905060006001866000018054905061151191906129c9565b905081811461158057600086600001828154811061153257611531612686565b5b906000526020600020015490508087600001848154811061155657611555612686565b5b90600052602060002001819055508387600101600083815260200190815260200160002081905550505b85600001805480611594576115936129fd565b5b6001900381819060005260206000200160009055905585600101600086815260200190815260200160002060009055600193505050506115d5565b60009150505b92915050565b60006115e7838361141a565b611640578260000182908060018154018082558091505060019003906000526020600020016000909190919091505582600001805490508360010160008481526020019081526020016000208190555060019050611645565b600090505b92915050565b600082600001828154811061166357611662612686565b5b9060005260206000200154905092915050565b6060828260405160200161168b929190612a79565b604051602081830303815290604052905092915050565b6000604051905090565b600080fd5b600080fd5b60007fffffffff0000000000000000000000000000000000000000000000000000000082169050919050565b6116eb816116b6565b81146116f657600080fd5b50565b600081359050611708816116e2565b92915050565b600060208284031215611724576117236116ac565b5b6000611732848285016116f9565b91505092915050565b60008115159050919050565b6117508161173b565b82525050565b600060208201905061176b6000830184611747565b92915050565b600081519050919050565b600082825260208201905092915050565b6000819050602082019050919050565b600073ffffffffffffffffffffffffffffffffffffffff82169050919050565b60006117c88261179d565b9050919050565b6117d8816117bd565b82525050565b60006117ea83836117cf565b60208301905092915050565b6000602082019050919050565b600061180e82611771565b611818818561177c565b93506118238361178d565b8060005b8381101561185457815161183b88826117de565b9750611846836117f6565b925050600181019050611827565b5085935050505092915050565b6000602082019050818103600083015261187b8184611803565b905092915050565b61188c816117bd565b811461189757600080fd5b50565b6000813590506118a981611883565b92915050565b6000602082840312156118c5576118c46116ac565b5b60006118d38482850161189a565b91505092915050565b6000819050919050565b6118ef816118dc565b82525050565b600060208201905061190a60008301846118e6565b92915050565b6000819050919050565b61192381611910565b811461192e57600080fd5b50565b6000813590506119408161191a565b92915050565b60006020828403121561195c5761195b6116ac565b5b600061196a84828501611931565b91505092915050565b600081519050919050565b600082825260208201905092915050565b6000819050602082019050919050565b6119a881611910565b82525050565b60006119ba838361199f565b60208301905092915050565b6000602082019050919050565b60006119de82611973565b6119e8818561197e565b93506119f38361198f565b8060005b83811015611a24578151611a0b88826119ae565b9750611a16836119c6565b9250506001810190506119f7565b5085935050505092915050565b60006020820190508181036000830152611a4b81846119d3565b905092915050565b611a5c816117bd565b82525050565b6000602082019050611a776000830184611a53565b92915050565b600080fd5b600080fd5b6000601f19601f8301169050919050565b7f4e487b7100000000000000000000000000000000000000000000000000000000600052604160045260246000fd5b611ad082611a87565b810181811067ffffffffffffffff82111715611aef57611aee611a98565b5b80604052505050565b6000611b026116a2565b9050611b0e8282611ac7565b919050565b600067ffffffffffffffff821115611b2e57611b2d611a98565b5b611b3782611a87565b9050602081019050919050565b82818337600083830152505050565b6000611b66611b6184611b13565b611af8565b905082815260208101848484011115611b8257611b81611a82565b5b611b8d848285611b44565b509392505050565b600082601f830112611baa57611ba9611a7d565b5b8135611bba848260208601611b53565b91505092915050565b600080600060608486031215611bdc57611bdb6116ac565b5b6000611bea86828701611931565b935050602084013567ffffffffffffffff811115611c0b57611c0a6116b1565b5b611c1786828701611b95565b9250506040611c2886828701611931565b9150509250925092565b60008060408385031215611c4957611c486116ac565b5b6000611c5785828601611931565b9250506020611c688582860161189a565b9150509250929050565b611c7b816118dc565b8114611c8657600080fd5b50565b600081359050611c9881611c72565b92915050565b600060208284031215611cb457611cb36116ac565b5b6000611cc284828501611c89565b91505092915050565b600082825260208201905092915050565b7f53656372657420486173682063616e6e6f742062652062797465733332283029600082015250565b6000611d12602083611ccb565b9150611d1d82611cdc565b602082019050919050565b60006020820190508181036000830152611d4181611d05565b9050919050565b600081519050611d5781611883565b92915050565b600060208284031215611d7357611d726116ac565b5b6000611d8184828501611d48565b91505092915050565b7f4f776e6572206f66206163636f756e7420646f65736e277420737570706f727460008201527f204c53503620496e746572666163654964000000000000000000000000000000602082015250565b6000611de6603183611ccb565b9150611df182611d8a565b604082019050919050565b60006020820190508181036000830152611e1581611dd9565b9050919050565b6000819050919050565b611e37611e3282611910565b611e1c565b82525050565b6000611e498284611e26565b60208201915081905092915050565b7f50726f76696465642061646472657373206973206e6f7420612067756172646960008201527f616e000000000000000000000000000000000000000000000000000000000000602082015250565b6000611eb4602283611ccb565b9150611ebf82611e58565b604082019050919050565b60006020820190508181036000830152611ee381611ea7565b9050919050565b7f477561726469616e73206e756d6265722063616e206e6f74206265206c6f776560008201527f72207468616e20746865207468726573686f6c64000000000000000000000000602082015250565b6000611f46603483611ccb565b9150611f5182611eea565b604082019050919050565b60006020820190508181036000830152611f7581611f39565b9050919050565b7f43616c6c6572206973206e6f74206120677561726469616e0000000000000000600082015250565b6000611fb2601883611ccb565b9150611fbd82611f7c565b602082019050919050565b60006020820190508181036000830152611fe181611fa5565b9050919050565b7f5468726573686f6c642073686f756c64206265206265747765656e203120616e60008201527f642074686520677561726469616e73436f756e74000000000000000000000000602082015250565b6000612044603483611ccb565b915061204f82611fe8565b604082019050919050565b6000602082019050818103600083015261207381612037565b9050919050565b7f50726f7669646564206164647265737320697320616c7265616479206120677560008201527f61726469616e0000000000000000000000000000000000000000000000000000602082015250565b60006120d6602683611ccb565b91506120e18261207a565b604082019050919050565b60006020820190508181036000830152612105816120c9565b9050919050565b7f4f776e61626c653a206e6577206f776e657220697320746865207a65726f206160008201527f6464726573730000000000000000000000000000000000000000000000000000602082015250565b6000612168602683611ccb565b91506121738261210c565b604082019050919050565b600060208201905081810360008301526121978161215b565b9050919050565b7f4f776e61626c653a2063616c6c6572206973206e6f7420746865206f776e6572600082015250565b60006121d4602083611ccb565b91506121df8261219e565b602082019050919050565b60006020820190508181036000830152612203816121c7565b9050919050565b7f596f75206469646e7420726561636820746865207468726573686f6c64000000600082015250565b6000612240601d83611ccb565b915061224b8261220a565b602082019050919050565b6000602082019050818103600083015261226f81612233565b9050919050565b600081519050919050565b600081905092915050565b60005b838110156122aa57808201518184015260208101905061228f565b838111156122b9576000848401525b50505050565b60006122ca82612276565b6122d48185612281565b93506122e481856020860161228c565b80840191505092915050565b60006122fc82846122bf565b915081905092915050565b7f57726f6e67207365637265740000000000000000000000000000000000000000600082015250565b600061233d600c83611ccb565b915061234882612307565b602082019050919050565b6000602082019050818103600083015261236c81612330565b9050919050565b61237c816116b6565b82525050565b60006020820190506123976000830184612373565b92915050565b600081519050919050565b600081905092915050565b60006123be8261239d565b6123c881856123a8565b93506123d881856020860161228c565b80840191505092915050565b60006123f082846123b3565b915081905092915050565b6124048161173b565b811461240f57600080fd5b50565b600081519050612421816123fb565b92915050565b60006020828403121561243d5761243c6116ac565b5b600061244b84828501612412565b91505092915050565b61245d81611910565b82525050565b60006020820190506124786000830184612454565b92915050565b600067ffffffffffffffff82111561249957612498611a98565b5b6124a282611a87565b9050602081019050919050565b60006124c26124bd8461247e565b611af8565b9050828152602081018484840111156124de576124dd611a82565b5b6124e984828561228c565b509392505050565b600082601f83011261250657612505611a7d565b5b81516125168482602086016124af565b91505092915050565b600060208284031215612535576125346116ac565b5b600082015167ffffffffffffffff811115612553576125526116b1565b5b61255f848285016124f1565b91505092915050565b6000819050602082019050919050565b60006125848251611910565b80915050919050565b600082821b905092915050565b60006125a58261239d565b826125af84612568565b90506125ba81612578565b925060208210156125fa576125f57fffffffffffffffffffffffffffffffffffffffffffffffffffffffffffffffff8360200360080261258d565b831692505b5050919050565b7f4e487b7100000000000000000000000000000000000000000000000000000000600052601160045260246000fd5b600061263b826118dc565b9150612646836118dc565b9250827fffffffffffffffffffffffffffffffffffffffffffffffffffffffffffffffff0382111561267b5761267a612601565b5b828201905092915050565b7f4e487b7100000000000000000000000000000000000000000000000000000000600052603260045260246000fd5b6000819050919050565b6126d06126cb826118dc565b6126b5565b82525050565b60006126e282846126bf565b60208201915081905092915050565b60008160601b9050919050565b6000612709826126f1565b9050919050565b600061271b826126fe565b9050919050565b61273361272e826117bd565b612710565b82525050565b60006127458284612722565b60148201915081905092915050565b600081519050919050565b600082825260208201905092915050565b6000819050602082019050919050565b600082825260208201905092915050565b600061279c8261239d565b6127a68185612780565b93506127b681856020860161228c565b6127bf81611a87565b840191505092915050565b60006127d68383612791565b905092915050565b6000602082019050919050565b60006127f682612754565b612800818561275f565b93508360208202850161281285612770565b8060005b8581101561284e578484038952815161282f85826127ca565b945061283a836127de565b925060208a01995050600181019050612816565b50829750879550505050505092915050565b6000604082019050818103600083015261287a81856119d3565b9050818103602083015261288e81846127eb565b90509392505050565b600082825260208201905092915050565b60006128b38261239d565b6128bd8185612897565b93506128cd81856020860161228c565b6128d681611a87565b840191505092915050565b600060208201905081810360008301526128fb81846128a8565b905092915050565b60007fffffffffffffffffffffffff000000000000000000000000000000000000000082169050919050565b6000819050919050565b61294a61294582612903565b61292f565b82525050565b60007fffffffffffffffffffffffffffffffffffffffff00000000000000000000000082169050919050565b6000819050919050565b61299761299282612950565b61297c565b82525050565b60006129a98285612939565b600c820191506129b98284612986565b6014820191508190509392505050565b60006129d4826118dc565b91506129df836118dc565b9250828210156129f2576129f1612601565b5b828203905092915050565b7f4e487b7100000000000000000000000000000000000000000000000000000000600052603160045260246000fd5b60007fffffffffffffffffffffffffffffffff0000000000000000000000000000000082169050919050565b6000819050919050565b612a73612a6e82612a2c565b612a58565b82525050565b6000612a858285612a62565b601082019150612a958284612a62565b601082019150819050939250505056fea2646970667358221220b21bf825c985e5ed800e6942b84c5d513dd0e70956ca0f49f138b2f4be7b3acc64736f6c63430008090033",
  "linkReferences": {},
  "deployedLinkReferences": {}
}